:100000000C9462000C948A000C948A000C948A0070
:100010000C948A000C948A000C948A000C948A0038
:100020000C948A000C948A000C948A000C948A0028
:100030000C948A000C948A000C948A000C948A0018
:100040000C9433010C948A000C9458020C948A008E
:100050000C948A000C948A000C948A000C948A00F8
:100060000C948A000C948A000000000024002700F1
:100070002A0000000000250028002B0000000000DE
:1000800023002600290004040404040404040202DA
:100090000202020203030303030301020408102007
:1000A0004080010204081020010204081020000012
:1000B0000007000201000003040600000000000029
:1000C0000000DD0311241FBECFEFD4E0DEBFCDBFA3
:1000D00011E0A0E0B1E0EEE9FBE002C005900D9276
:1000E000AA30B107D9F711E0AAE0B1E001C01D9232
:1000F000AC3AB107E1F710E0C4ECD0E004C02297BD
:10010000FE010E94C905C23CD107C9F70E942C011B
:100110000C94CD050C940000CF93DF9389E991E016
:100120000E948E03882309F450C089E991E00E945F
:10013000A203EC0181E080930A01AE01662757FD1E
:100140006095762F89E991E022E030E00E94390540
:10015000C0FF03C082E061E002C082E060E00E9474
:100160000B02C1FF03C083E061E002C083E060E0F6
:100170000E940B02C2FF03C084E061E002C084E081
:1001800060E00E940B02C3FF03C085E061E002C093
:1001900085E060E00E940B02C4FF03C086E061E0DE
:1001A00002C086E060E00E940B02CE018370907076
:1001B000892B21F4CC70D070CD2B21F081E080937D
:1001C0000B0105C010920B0102C010920A01809130
:1001D0000A018823F9F080910B018823A9F060E0DF
:1001E00070E080E090E00E94870187E061E00E947B
:1001F0000B0260E070E080E090E00E94870187E001
:1002000060E00E940B0206C060E070E080E090E0D9
:100210000E9487018DE061E00E940B028DE060E0AA
:100220000E940B02DF91CF9108951F9389E991E01D
:1002300040E855E260E070E00E94950212E0812FF4
:1002400061E00E94EB011F5F1830C9F78DE061E0AB
:100250000E94EB011F9108950E94B1010E941501B7
:100260000E948C00FDCF1F920F920FB60F921124A7
:100270002F933F934F935F936F937F938F939F93AE
:10028000AF93BF9320911001309111014091120161
:100290005091130170911401DA01C9010296A11D58
:1002A000B11D672F6A5F6D3730F06D57DA01C901F4
:1002B0000396A11DB11D60931401809310019093CA
:1002C0001101A0931201B093130180910C01909140
:1002D0000D01A0910E01B0910F010196A11DB11D5C
:1002E00080930C0190930D01A0930E01B0930F0128
:1002F000BF91AF919F918F917F916F915F914F913E
:100300003F912F910F900FBE0F901F901895EF9275
:10031000FF920F931F937B018C018FB7F89440914C
:1003200010015091110160911201709113018FBF62
:100330002FB7F8948091100190911101A0911201B2
:10034000B09113012FBF841B950BA60BB70BE816BA
:10035000F9060A071B0760F71F910F91FF90EF90B6
:100360000895789484B5826084BD84B5816084BD2D
:1003700085B5826085BD85B5816085BDEEE6F0E01E
:10038000808181608083E1E8F0E080818260808309
:10039000808181608083E0E8F0E0808181608083FB
:1003A000E1EBF0E0808184608083E0EBF0E080812D
:1003B00081608083EAE7F0E08081846080838081CF
:1003C0008260808380818160808380818068808377
:1003D0001092C1000895282F30E0C90186569F4F22
:1003E000FC0194912A573F4FF9018491882391F0A1
:1003F000E82FF0E0EE0FFF1FE859FF4FA591B491F1
:10040000662329F48C91909589238C9308958C917F
:10041000892B8C930895482F50E0CA0182559F4F35
:10042000FC012491CA0186569F4FFC0194914A57C2
:100430005F4FFA0134913323D1F1222331F123307C
:1004400021F4809180008F7705C0243031F48091B1
:1004500080008F7D8093800018C0213019F484B50E
:100460008F7704C0223021F484B58F7D84BD0DC008
:10047000263021F48091B0008F7705C0273029F411
:100480008091B0008F7D8093B000E32FF0E0EE0FFD
:10049000FF1FEE58FF4FA591B491662329F48C916C
:1004A000909589238C9308958C91892B8C93089532
:1004B0001F920F920FB60F9211242F933F934F93D9
:1004C0005F936F937F938F939F93AF93BF93EF93BC
:1004D000FF934091C600E0919501F0919601CF0104
:1004E000019660E870E00E9463059C01809197018D
:1004F000909198012817390739F0EB5EFE4F408341
:100500003093960120939501FF91EF91BF91AF91A8
:100510009F918F917F916F915F914F913F912F911B
:100520000F900FBE0F901F9018955F926F927F9261
:100530008F929F92AF92BF92CF92DF92EF92FF92F3
:100540000F931F93CF93DF93EC013A014B0141329C
:1005500081EA580787E0680780E078070CF07FC0E1
:1005600060E472E48FE090E0A40193010E9498059A
:100570002150304040405040CA01B90122E030E0F3
:1005800040E050E00E94980559016A01A6019501DA
:10059000209530954095509594E0220F331F441FCD
:1005A000551F9A95D1F760E072E18AE790E00E94CA
:1005B0009805CA01B9012FEF30E040E050E00E94F9
:1005C0004405A40193010E949805C90181509F4FE1
:1005D000181619061CF4522E5A9403C0552453942D
:1005E000521A60E874E88EE190E0A40193010E9441
:1005F00098052150304040405040CA01B90122E0E6
:1006000030E040E050E00E949805209530954095FC
:10061000509583E0220F331F441F551F8A95D1F751
:1006200060E072E18AE790E00E949805CA01B90192
:100630002FEF30E040E050E00E944405A401930118
:100640000E949805C90181509F4F181619061CF485
:10065000822F815002C081E0821B851500F5E8855C
:10066000F98581E090E00A8802C0880F991F0A94FA
:10067000E2F7808360E874E88EE190E0A4019301E2
:100680000E9498052150304040405040CA01B901B5
:1006900022E030E040E050E00E94980504C0E88588
:1006A000F98510829501EC81FD813083EE81FF8117
:1006B0002083EA85FB85208141E050E0CA010E8459
:1006C00002C0880F991F0A94E2F7282B2083EA853D
:1006D000FB852081CA010F8402C0880F991F0A94EC
:1006E000E2F7282B2083EA85FB858081088802C0F9
:1006F000440F551F0A94E2F7842B8083DF91CF913A
:100700001F910F91FF90EF90DF90CF90BF90AF902F
:100710009F908F907F906F905F900895DC0112966C
:10072000ED91FC911397E058FF4F81919191805882
:100730009F4F20813181821B930B60E870E00E9403
:1007400063050895CF93DF93DC011296ED91FC9140
:100750001397EF01CE57DF4F48815981E058FF4F83
:1007600080819181E058F0408417950719F42FEFAC
:100770003FEF0CC0E40FF51F2081CA01019660E82D
:1007800070E00E9463059983888330E0C901DF919E
:10079000CF910895FC01A085B18521898C9190E0CD
:1007A000022E02C0959587950A94E2F780FFF6CF56
:1007B0000484F585E02D6083089584E091E09093B2
:1007C0009A018093990185E191E090939C01809337
:1007D0009B0185EC90E090939E0180939D0184ECB9
:1007E00090E09093A00180939F0180EC90E0909323
:1007F000A2018093A10181EC90E09093A4018093E9
:10080000A30186EC90E09093A6018093A50184E07B
:100810008093A70183E08093A80187E08093A901DA
:1008200085E08093AA0181E08093AB0108950F9346
:100830001F93CF93DF938C01EB0109C02196D80160
:10084000ED91FC910190F081E02DC801099568813E
:100850006623A1F7DF91CF911F910F910895EF9239
:10086000FF920F931F93CF93DF938C017B01EA01DB
:100870000CC0D7016D917D01D801ED91FC910190E3
:10088000F081E02DC80109952197209791F7DF911C
:10089000CF911F910F91FF90EF9008950F931F93A9
:1008A0008C01DC01ED91FC910190F081E02D6DE077
:1008B0000995D801ED91FC910190F081E02DC801DE
:1008C0006AE009951F910F9108952F923F924F92E0
:1008D0005F926F927F928F929F92AF92BF92CF92D0
:1008E000DF92EF92FF920F931F93DF93CF93CDB7D9
:1008F000DEB7A0970FB6F894DEBF0FBECDBF1C01C8
:100900006A017B01411551056105710549F4DC015E
:10091000ED91FC910190F081E02D60E3099554C0C8
:10092000882499245401422E55246624772401E01A
:1009300010E00C0F1D1F080D191DC701B601A30102
:1009400092010E947605F80160830894811C911C35
:10095000A11CB11CC701B601A30192010E9476053A
:10096000C901DA016C017D01C114D104E104F10473
:10097000F1F681E0E82EF12CEC0EFD1EE80CF91CDE
:100980003E010894611C711CD501C4010197A109A5
:10099000B1096C01C818D90814C0F601EE0DFF1D8D
:1009A00060816A3010F4605D01C0695CD101ED9135
:1009B000FC910190F081E02DC10109950894E108B6
:1009C000F1086E147F0449F7A0960FB6F894DEBFC5
:1009D0000FBECDBFCF91DF911F910F91FF90EF9090
:1009E000DF90CF90BF90AF909F908F907F906F904F
:1009F0005F904F903F902F900895EF92FF920F934A
:100A00001F93CF93DF93EC017A018B0177FF0FC027
:100A1000E881F9810190F081E02D6DE20995109552
:100A20000095F094E094E11CF11C011D111DCE0114
:100A3000B801A7012AE00E946504DF91CF911F91C0
:100A40000F91FF90EF900895DC012115310541F4DD
:100A5000ED91FC910190F081E02D642F09950895AE
:100A60002A30310519F40E94FD0408950E9465049E
:100A700008950F931F938C010E942405C8010E94C2
:100A80004E041F910F910895629FD001739FF00152
:100A9000829FE00DF11D649FE00DF11D929FF00D0E
:100AA000839FF00D749FF00D659FF00D9927729F45
:100AB000B00DE11DF91F639FB00DE11DF91FBD01D0
:100AC000CF011124089597FB092E07260AD077FD40
:100AD00004D049D006D000201AF4709561957F4F5C
:100AE0000895F6F7909581959F4F0895A1E21A2EEB
:100AF000AA1BBB1BFD010DC0AA1FBB1FEE1FFF1FC2
:100B0000A217B307E407F50720F0A21BB30BE40B11
:100B1000F50B661F771F881F991F1A9469F7609558
:100B20007095809590959B01AC01BD01CF01089512
:100B300097FB092E05260ED057FD04D0D7DF0AD02B
:100B4000001C38F450954095309521953F4F4F4FFC
:100B50005F4F0895F6F790958095709561957F4F5A
:100B60008F4F9F4F0895AA1BBB1B51E107C0AA1FBF
:100B7000BB1FA617B70710F0A61BB70B881F991F3E
:100B80005A95A9F780959095BC01CD010895EE0F77
:0E0B9000FF1F0590F491E02D0994F894FFCF1B
:0A0B9E0000000000CA0317042F0432
:00000001FF
