:100000000C9462000C948A000C948A000C948A0070
:100010000C948A000C948A000C948A000C948A0038
:100020000C948A000C948A000C948A000C948A0028
:100030000C948A000C948A000C948A000C948A0018
:100040000C9415020C948A000C947D030C948A0085
:100050000C948A000C948A000C948A000C948A00F8
:100060000C948A000C948A000000000024002700F1
:100070002A0000000000250028002B0000000000DE
:1000800023002600290004040404040404040202DA
:100090000202020203030303030301020408102007
:1000A0004080010204081020010204081020000012
:1000B0000007000201000003040600000000000029
:1000C0000000020511241FBECFEFD4E0DEBFCDBF7C
:1000D00011E0A0E0B1E0E8ECFDE002C005900D9277
:1000E000AA31B107D9F711E0AAE1B1E001C01D9230
:1000F000A03CB107E1F710E0C4ECD0E004C02297C7
:10010000FE010E94DE06C23CD107C9F70E940E0222
:100110000C94E2060C94000080910E010E942E03C4
:10012000BC0190931F0180931E018DEA91E00E9413
:10013000490680911E0190911F01892B09F084C00E
:100140008DEA91E060E070E00E9449068091020132
:1001500061E00E94E10268EE73E080E090E00E94BE
:100160005D028091020160E00E94E10268EE73E0AE
:1001700080E090E00E945D028091040161E00E94B5
:10018000E10268EE73E080E090E00E945D02809101
:10019000040160E00E94E10268EE73E080E090E01C
:1001A0000E945D028091060161E00E94E10268EE1A
:1001B00073E080E090E00E945D028091060160E0C3
:1001C0000E94E10268EE73E080E090E00E945D0230
:1001D0008091080161E00E94E10268EE73E080E036
:1001E00090E00E945D028091080160E00E94E102BF
:1001F00068EE73E080E090E00E945D0280910A0169
:1002000061E00E94E10268EE73E080E090E00E940D
:100210005D0280910A0160E00E94E10268EE73E0F5
:1002200080E090E00E945D0280910C0161E00E94FC
:10023000E10268EE73E080E090E00E945D02809150
:100240000C0160E00E94E1028DEA91E00E94B3049B
:10025000882309F49BC010921D0110921C018DEAA5
:1002600091E00E94C70480931A0190931B0180FFC4
:100270000FC08091020161E00E94E10280911C01A7
:1002800090911D01019690931D0180931C0105C062
:100290008091020160E00E94E10280911A0181FFD9
:1002A0000FC08091040161E00E94E10280911C0175
:1002B00090911D01019690931D0180931C0105C032
:1002C0008091040160E00E94E10280911A0182FFA6
:1002D0000FC08091060161E00E94E10280911C0143
:1002E00090911D01019690931D0180931C0105C002
:1002F0008091060160E00E94E10280911A0183FF73
:100300000FC08091080161E00E94E10280911C0110
:1003100090911D01019690931D0180931C0105C0D1
:100320008091080160E00E94E10280911A0184FF3F
:100330000FC080910A0161E00E94E10280911C01DE
:1003400090911D01019690931D0180931C0105C0A1
:1003500080910A0160E00E94E102609100017091C9
:100360000101882777FD8095982F0E945D0280917A
:100370001C0190911D01892B21F080910C0161E0FD
:1003800003C080910C0160E00E94E10220910C0109
:1003900060911A0170911B01CB0183709070892BC1
:1003A00061F4CB018C709070892B39F484E07695E0
:1003B00067958A95E1F7617001C061E0822F0E9424
:1003C000E10208958DEA91E040E855E260E070E0D6
:1003D0000E94BA038091020161E00E94C1028091F3
:1003E000040161E00E94C1028091060161E00E9467
:1003F000C1028091080161E00E94C10280910A015E
:1004000061E00E94C10280910C0161E00E94C10282
:1004100080910E0160E00E94C10208950E9487024F
:100420000E94E2010E948C00FDCF1F920F920FB636
:100430000F9211242F933F938F939F93AF93BF936A
:100440008091240190912501A0912601B09127016E
:10045000309128010196A11DB11D232F2D5F2D374D
:1004600020F02D570196A11DB11D209328018093E6
:10047000240190932501A0932601B0932701809138
:10048000200190912101A0912201B09123010196B8
:10049000A11DB11D8093200190932101A093220101
:1004A000B0932301BF91AF919F918F913F912F9175
:1004B0000F900FBE0F901F901895EF92FF920F9321
:1004C0001F937B018C018FB7F894409124015091C8
:1004D000250160912601709127018FBF2FB7F894F5
:1004E0008091240190912501A0912601B0912701CE
:1004F0002FBF841B950BA60BB70BE816F9060A074E
:100500001B0760F71F910F91FF90EF90089578946B
:1005100084B5826084BD84B5816084BD85B5826008
:1005200085BD85B5816085BDEEE6F0E080818160A6
:100530008083E1E8F0E08081826080838081816057
:100540008083E0E8F0E0808181608083E1EBF0E08F
:10055000808184608083E0EBF0E080818160808333
:10056000EAE7F0E08081846080838081826080831C
:100570008081816080838081806880831092C10047
:100580000895282F30E0C90186569F4FFC019491B1
:100590002A573F4FF9018491882391F0E82FF0E02A
:1005A000EE0FFF1FE859FF4FA591B491662329F480
:1005B0008C91909589238C9308958C91892B8C93A1
:1005C0000895482F50E0CA0182559F4FFC012491A5
:1005D000CA0186569F4FFC0194914A575F4FFA011A
:1005E00034913323D1F1222331F1233021F480914E
:1005F00080008F7705C0243031F4809180008F7D9A
:100600008093800018C0213019F484B58F7704C01E
:10061000223021F484B58F7D84BD0DC0263021F4B5
:100620008091B0008F7705C0273029F48091B00009
:100630008F7D8093B000E32FF0E0EE0FFF1FEE58A8
:10064000FF4FA591B491662329F48C91909589234D
:100650008C9308958C91892B8C930895682F70E06A
:10066000CB0182559F4FFC012491CB0186569F4FB1
:10067000FC0144916A577F4FFB019491992319F42F
:1006800020E030E038C0222331F1233021F4809182
:1006900080008F7705C0243031F4809180008F7DF9
:1006A0008093800018C0213019F484B58F7704C07E
:1006B000223021F484B58F7D84BD0DC0263021F415
:1006C0008091B0008F7705C0273029F48091B00069
:1006D0008F7D8093B000892F90E0880F991F8458F8
:1006E0009F4FFC01A591B4918C9120E030E08423D0
:1006F00011F021E030E0C90108951F920F920FB66A
:100700000F9211242F933F934F935F936F937F9397
:100710008F939F93AF93BF93EF93FF934091C60046
:10072000E091A901F091AA01CF01019660E870E083
:100730000E9478069C018091AB019091AC01281732
:10074000390739F0E75DFE4F40833093AA012093CB
:10075000A901FF91EF91BF91AF919F918F917F91EF
:100760006F915F914F913F912F910F900FBE0F901E
:100770001F9018955F926F927F928F929F92AF9287
:10078000BF92CF92DF92EF92FF920F931F93CF937E
:10079000DF93EC013A014B01413482E458078FE0CA
:1007A000680780E078070CF07FC060E874E88EE1AD
:1007B00090E0A40193010E94AD06215030404040DA
:1007C0005040CA01B90122E030E040E050E00E9410
:1007D000AD0659016A01A601950120953095409515
:1007E000509594E0220F331F441F551F9A95D1F75F
:1007F00060E074E284EF90E00E94AD06CA01B901A6
:100800002FEF30E040E050E00E945906A401930130
:100810000E94AD06C90181509F4F181619061CF49D
:10082000522E5A9403C055245394521A60E079E032
:100830008DE390E0A40193010E94AD062150304069
:1008400040405040CA01B90122E030E040E050E0B1
:100850000E94AD06209530954095509583E0220F7B
:10086000331F441F551F8A95D1F760E074E284EF6F
:1008700090E00E94AD06CA01B9012FEF30E040E0E0
:1008800050E00E945906A40193010E94AD06C901DF
:1008900081509F4F181619061CF4822F815002C0F8
:1008A00081E0821B851500F5E885F98581E090E0FF
:1008B0000A8802C0880F991F0A94E2F7808360E0DB
:1008C00079E08DE390E0A40193010E94AD062150F0
:1008D000304040405040CA01B90122E030E040E0E1
:1008E00050E00E94AD0604C0E885F98510829501AC
:1008F000EC81FD813083EE81FF812083EA85FB85D9
:10090000208141E050E0CA010E8402C0880F991F87
:100910000A94E2F7282B2083EA85FB852081CA010F
:100920000F8402C0880F991F0A94E2F7282B2083B6
:10093000EA85FB858081088802C0440F551F0A9410
:10094000E2F7842B8083DF91CF911F910F91FF906D
:10095000EF90DF90CF90BF90AF909F908F907F905F
:100960006F905F900895DC011296ED91FC911397C2
:10097000E058FF4F8191919180589F4F20813181A4
:10098000821B930B60E870E00E9478060895CF9375
:10099000DF93DC011296ED91FC911397EF01CE5796
:1009A000DF4F48815981E058FF4F80819181E058A5
:1009B000F0408417950719F42FEF3FEF0CC0E40FB8
:1009C000F51F2081CA01019660E870E00E94780658
:1009D0009983888330E0C901DF91CF910895FC01AC
:1009E000A085B18521898C9190E0022E02C0959559
:1009F00087950A94E2F780FFF6CF0484F585E02D11
:100A00006083089584E191E09093AE018093AD01FD
:100A100089E291E09093B0018093AF0185EC90E082
:100A20009093B2018093B10184EC90E09093B40173
:100A30008093B30180EC90E09093B6018093B50170
:100A400081EC90E09093B8018093B70186EC90E040
:100A50009093BA018093B90184E08093BB0183E055
:100A60008093BC0187E08093BD0185E08093BE0147
:100A700081E08093BF0108950F931F93CF93DF937D
:100A80008C01EB0109C02196D801ED91FC910190F8
:100A9000F081E02DC801099568816623A1F7DF91F7
:100AA000CF911F910F910895EF92FF920F931F9393
:100AB000CF93DF938C017B01EA010CC0D7016D91CC
:100AC0007D01D801ED91FC910190F081E02DC801EC
:100AD00009952197209791F7DF91CF911F910F9161
:100AE000FF90EF9008950F931F938C01DC01ED911F
:100AF000FC910190F081E02D6DE00995D801ED9118
:100B0000FC910190F081E02DC8016AE009951F91E8
:100B10000F9108952F923F924F925F926F927F9222
:100B20008F929F92AF92BF92CF92DF92EF92FF92FD
:100B30000F931F93DF93CF93CDB7DEB7A0970FB678
:100B4000F894DEBF0FBECDBF1C016A017B014115C9
:100B500051056105710549F4DC01ED91FC910190AD
:100B6000F081E02D60E3099554C088249924540154
:100B7000422E55246624772401E010E00C0F1D1F3F
:100B8000080D191DC701B601A30192010E948B0631
:100B9000F80160830894811C911CA11CB11CC70141
:100BA000B601A30192010E948B06C901DA016C0112
:100BB0007D01C114D104E104F104F1F681E0E82ED5
:100BC000F12CEC0EFD1EE80CF91C3E010894611C92
:100BD000711CD501C4010197A109B1096C01C818A4
:100BE000D90814C0F601EE0DFF1D60816A3010F4C3
:100BF000605D01C0695CD101ED91FC910190F081D3
:100C0000E02DC10109950894E108F1086E147F04F4
:100C100049F7A0960FB6F894DEBF0FBECDBFCF91B7
:100C2000DF911F910F91FF90EF90DF90CF90BF90D9
:100C3000AF909F908F907F906F905F904F903F907C
:100C40002F900895EF92FF920F931F93CF93DF930E
:100C5000EC017A018B0177FF0FC0E881F9810190E7
:100C6000F081E02D6DE2099510950095F094E094E7
:100C7000E11CF11C011D111DCE01B801A7012AE0E4
:100C80000E948A05DF91CF911F910F91FF90EF9005
:100C900008950F931F938C01AB01662757FD609554
:100CA000762F0E942206C8010E9473051F910F91A2
:100CB0000895629FD001739FF001829FE00DF11DA6
:100CC000649FE00DF11D929FF00D839FF00D749FC6
:100CD000F00D659FF00D9927729FB00DE11DF91F72
:100CE000639FB00DE11DF91FBD01CF0111240895CF
:100CF00097FB092E07260AD077FD04D049D006D0ED
:100D000000201AF4709561957F4F0895F6F790953D
:100D100081959F4F0895A1E21A2EAA1BBB1BFD01CE
:100D20000DC0AA1FBB1FEE1FFF1FA217B307E407CA
:100D3000F50720F0A21BB30BE40BF50B661F771F22
:100D4000881F991F1A9469F7609570958095909502
:100D50009B01AC01BD01CF01089597FB092E05262B
:100D60000ED057FD04D0D7DF0AD0001C38F45095C0
:100D70004095309521953F4F4F4F5F4F0895F6F7BF
:100D800090958095709561957F4F8F4F9F4F0895F7
:100D9000AA1BBB1B51E107C0AA1FBB1FA617B707A1
:100DA00010F0A61BB70B881F991F5A95A9F78095BD
:100DB0009095BC01CD010895EE0FFF1F0590F491B1
:080DC000E02D0994F894FFCF27
:100DC8000A000200030004000500060007000C00EA
:0A0DD80000000000EF043C05540584
:00000001FF
